{
	"contracts/Calculator.sol": {
		"Calculator": {
			"abi": [
				{
					"anonymous": false,
					"inputs": [
						{
							"indexed": false,
							"internalType": "uint256",
							"name": "num1",
							"type": "uint256"
						},
						{
							"indexed": false,
							"internalType": "uint256",
							"name": "num2",
							"type": "uint256"
						},
						{
							"indexed": false,
							"internalType": "uint256",
							"name": "result",
							"type": "uint256"
						}
					],
					"name": "Addition",
					"type": "event"
				},
				{
					"anonymous": false,
					"inputs": [
						{
							"indexed": false,
							"internalType": "int256",
							"name": "num1",
							"type": "int256"
						},
						{
							"indexed": false,
							"internalType": "int256",
							"name": "num2",
							"type": "int256"
						},
						{
							"indexed": false,
							"internalType": "int256",
							"name": "result",
							"type": "int256"
						}
					],
					"name": "Substraction",
					"type": "event"
				},
				{
					"inputs": [
						{
							"internalType": "uint256",
							"name": "num1_",
							"type": "uint256"
						},
						{
							"internalType": "uint256",
							"name": "num2_",
							"type": "uint256"
						}
					],
					"name": "add",
					"outputs": [
						{
							"internalType": "uint256",
							"name": "result_",
							"type": "uint256"
						}
					],
					"stateMutability": "nonpayable",
					"type": "function"
				},
				{
					"inputs": [
						{
							"internalType": "int256",
							"name": "num1_",
							"type": "int256"
						},
						{
							"internalType": "int256",
							"name": "num2_",
							"type": "int256"
						}
					],
					"name": "divide",
					"outputs": [
						{
							"internalType": "int256",
							"name": "result_",
							"type": "int256"
						}
					],
					"stateMutability": "pure",
					"type": "function"
				},
				{
					"inputs": [
						{
							"internalType": "uint256",
							"name": "num1_",
							"type": "uint256"
						},
						{
							"internalType": "uint256",
							"name": "num2_",
							"type": "uint256"
						}
					],
					"name": "multiply",
					"outputs": [],
					"stateMutability": "nonpayable",
					"type": "function"
				},
				{
					"inputs": [
						{
							"internalType": "uint256",
							"name": "num1_",
							"type": "uint256"
						}
					],
					"name": "power",
					"outputs": [],
					"stateMutability": "nonpayable",
					"type": "function"
				},
				{
					"inputs": [],
					"name": "result",
					"outputs": [
						{
							"internalType": "uint256",
							"name": "",
							"type": "uint256"
						}
					],
					"stateMutability": "view",
					"type": "function"
				},
				{
					"inputs": [
						{
							"internalType": "int256",
							"name": "num1_",
							"type": "int256"
						},
						{
							"internalType": "int256",
							"name": "num2_",
							"type": "int256"
						}
					],
					"name": "substract",
					"outputs": [
						{
							"internalType": "int256",
							"name": "result_",
							"type": "int256"
						}
					],
					"stateMutability": "nonpayable",
					"type": "function"
				}
			],
			"devdoc": {
				"kind": "dev",
				"methods": {},
				"version": 1
			},
			"evm": {
				"assembly": "    /* \"contracts/Calculator.sol\":69:1343  contract Calculator{... */\n  mstore(0x40, 0x80)\n    /* \"contracts/Calculator.sol\":121:122  1 */\n  0x01\n    /* \"contracts/Calculator.sol\":97:122  uint256 public result = 1 */\n  0x00\n  sstore\n    /* \"contracts/Calculator.sol\":69:1343  contract Calculator{... */\n  callvalue\n  dup1\n  iszero\n  tag_1\n  jumpi\n  0x00\n  dup1\n  revert\ntag_1:\n  pop\n  dataSize(sub_0)\n  dup1\n  dataOffset(sub_0)\n  0x00\n  codecopy\n  0x00\n  return\nstop\n\nsub_0: assembly {\n        /* \"contracts/Calculator.sol\":69:1343  contract Calculator{... */\n      mstore(0x40, 0x80)\n      callvalue\n      dup1\n      iszero\n      tag_1\n      jumpi\n      0x00\n      dup1\n      revert\n    tag_1:\n      pop\n      jumpi(tag_2, lt(calldatasize, 0x04))\n      shr(0xe0, calldataload(0x00))\n      dup1\n      0x165c4a16\n      eq\n      tag_3\n      jumpi\n      dup1\n      0x65372147\n      eq\n      tag_4\n      jumpi\n      dup1\n      0x70027005\n      eq\n      tag_5\n      jumpi\n      dup1\n      0x771602f7\n      eq\n      tag_6\n      jumpi\n      dup1\n      0xcc193fb0\n      eq\n      tag_7\n      jumpi\n      dup1\n      0xf5984236\n      eq\n      tag_8\n      jumpi\n    tag_2:\n      0x00\n      dup1\n      revert\n        /* \"contracts/Calculator.sol\":985:1080  function multiply(uint256 num1_, uint256 num2_) public{... */\n    tag_3:\n      tag_9\n      0x04\n      dup1\n      calldatasize\n      sub\n      dup2\n      add\n      swap1\n      tag_10\n      swap2\n      swap1\n      tag_11\n      jump\t// in\n    tag_10:\n      tag_12\n      jump\t// in\n    tag_9:\n      stop\n        /* \"contracts/Calculator.sol\":97:122  uint256 public result = 1 */\n    tag_4:\n      tag_13\n      tag_14\n      jump\t// in\n    tag_13:\n      mload(0x40)\n      tag_15\n      swap2\n      swap1\n      tag_16\n      jump\t// in\n    tag_15:\n      mload(0x40)\n      dup1\n      swap2\n      sub\n      swap1\n      return\n        /* \"contracts/Calculator.sol\":637:827  function substract(int256 num1_, int256 num2_) public returns (int256 result_){... */\n    tag_5:\n      tag_17\n      0x04\n      dup1\n      calldatasize\n      sub\n      dup2\n      add\n      swap1\n      tag_18\n      swap2\n      swap1\n      tag_19\n      jump\t// in\n    tag_18:\n      tag_20\n      jump\t// in\n    tag_17:\n      mload(0x40)\n      tag_21\n      swap2\n      swap1\n      tag_22\n      jump\t// in\n    tag_21:\n      mload(0x40)\n      dup1\n      swap2\n      sub\n      swap1\n      return\n        /* \"contracts/Calculator.sol\":467:629  function add(uint256 num1_, uint256 num2_) public returns(uint256 result_) {... */\n    tag_6:\n      tag_23\n      0x04\n      dup1\n      calldatasize\n      sub\n      dup2\n      add\n      swap1\n      tag_24\n      swap2\n      swap1\n      tag_11\n      jump\t// in\n    tag_24:\n      tag_25\n      jump\t// in\n    tag_23:\n      mload(0x40)\n      tag_26\n      swap2\n      swap1\n      tag_16\n      jump\t// in\n    tag_26:\n      mload(0x40)\n      dup1\n      swap2\n      sub\n      swap1\n      return\n        /* \"contracts/Calculator.sol\":1088:1194  function power(uint256 num1_) public checkMaxPowerNumber(num1_){... */\n    tag_7:\n      tag_27\n      0x04\n      dup1\n      calldatasize\n      sub\n      dup2\n      add\n      swap1\n      tag_28\n      swap2\n      swap1\n      tag_29\n      jump\t// in\n    tag_28:\n      tag_30\n      jump\t// in\n    tag_27:\n      stop\n        /* \"contracts/Calculator.sol\":835:977  function divide(int256 num1_, int256 num2_) public pure checkNotZero(num2_) returns (int256 result_){... */\n    tag_8:\n      tag_31\n      0x04\n      dup1\n      calldatasize\n      sub\n      dup2\n      add\n      swap1\n      tag_32\n      swap2\n      swap1\n      tag_19\n      jump\t// in\n    tag_32:\n      tag_33\n      jump\t// in\n    tag_31:\n      mload(0x40)\n      tag_34\n      swap2\n      swap1\n      tag_22\n      jump\t// in\n    tag_34:\n      mload(0x40)\n      dup1\n      swap2\n      sub\n      swap1\n      return\n        /* \"contracts/Calculator.sol\":985:1080  function multiply(uint256 num1_, uint256 num2_) public{... */\n    tag_12:\n        /* \"contracts/Calculator.sol\":1067:1072  num2_ */\n      dup1\n        /* \"contracts/Calculator.sol\":1059:1064  num1_ */\n      dup3\n        /* \"contracts/Calculator.sol\":1059:1072  num1_ * num2_ */\n      tag_36\n      swap2\n      swap1\n      tag_37\n      jump\t// in\n    tag_36:\n        /* \"contracts/Calculator.sol\":1050:1056  result */\n      0x00\n        /* \"contracts/Calculator.sol\":1050:1072  result = num1_ * num2_ */\n      dup2\n      swap1\n      sstore\n      pop\n        /* \"contracts/Calculator.sol\":985:1080  function multiply(uint256 num1_, uint256 num2_) public{... */\n      pop\n      pop\n      jump\t// out\n        /* \"contracts/Calculator.sol\":97:122  uint256 public result = 1 */\n    tag_14:\n      sload(0x00)\n      dup2\n      jump\t// out\n        /* \"contracts/Calculator.sol\":637:827  function substract(int256 num1_, int256 num2_) public returns (int256 result_){... */\n    tag_20:\n        /* \"contracts/Calculator.sol\":700:714  int256 result_ */\n      0x00\n        /* \"contracts/Calculator.sol\":736:768  substraction_logic(num1_, num2_) */\n      tag_39\n        /* \"contracts/Calculator.sol\":755:760  num1_ */\n      dup4\n        /* \"contracts/Calculator.sol\":762:767  num2_ */\n      dup4\n        /* \"contracts/Calculator.sol\":736:754  substraction_logic */\n      tag_40\n        /* \"contracts/Calculator.sol\":736:768  substraction_logic(num1_, num2_) */\n      jump\t// in\n    tag_39:\n        /* \"contracts/Calculator.sol\":726:768  result_ = substraction_logic(num1_, num2_) */\n      swap1\n      pop\n        /* \"contracts/Calculator.sol\":784:819  Substraction(num1_, num2_, result_) */\n      0x29555e1db92f5ed941601f535b20f25e2f27f2c9bd5bfecab343060ca0275b0c\n        /* \"contracts/Calculator.sol\":797:802  num1_ */\n      dup4\n        /* \"contracts/Calculator.sol\":804:809  num2_ */\n      dup4\n        /* \"contracts/Calculator.sol\":811:818  result_ */\n      dup4\n        /* \"contracts/Calculator.sol\":784:819  Substraction(num1_, num2_, result_) */\n      mload(0x40)\n      tag_41\n      swap4\n      swap3\n      swap2\n      swap1\n      tag_42\n      jump\t// in\n    tag_41:\n      mload(0x40)\n      dup1\n      swap2\n      sub\n      swap1\n      log1\n        /* \"contracts/Calculator.sol\":637:827  function substract(int256 num1_, int256 num2_) public returns (int256 result_){... */\n      swap3\n      swap2\n      pop\n      pop\n      jump\t// out\n        /* \"contracts/Calculator.sol\":467:629  function add(uint256 num1_, uint256 num2_) public returns(uint256 result_) {... */\n    tag_25:\n        /* \"contracts/Calculator.sol\":525:540  uint256 result_ */\n      0x00\n        /* \"contracts/Calculator.sol\":569:574  num2_ */\n      dup2\n        /* \"contracts/Calculator.sol\":563:568  num1_ */\n      dup4\n        /* \"contracts/Calculator.sol\":563:574  num1_+num2_ */\n      tag_44\n      swap2\n      swap1\n      tag_45\n      jump\t// in\n    tag_44:\n        /* \"contracts/Calculator.sol\":553:574  result_ = num1_+num2_ */\n      swap1\n      pop\n        /* \"contracts/Calculator.sol\":590:621  Addition(num1_, num2_, result_) */\n      0x099a8fd2a0841afbe8000d711d763bf2c54b2c63bed7b7f92a244ef4f5154536\n        /* \"contracts/Calculator.sol\":599:604  num1_ */\n      dup4\n        /* \"contracts/Calculator.sol\":606:611  num2_ */\n      dup4\n        /* \"contracts/Calculator.sol\":613:620  result_ */\n      dup4\n        /* \"contracts/Calculator.sol\":590:621  Addition(num1_, num2_, result_) */\n      mload(0x40)\n      tag_46\n      swap4\n      swap3\n      swap2\n      swap1\n      tag_47\n      jump\t// in\n    tag_46:\n      mload(0x40)\n      dup1\n      swap2\n      sub\n      swap1\n      log1\n        /* \"contracts/Calculator.sol\":467:629  function add(uint256 num1_, uint256 num2_) public returns(uint256 result_) {... */\n      swap3\n      swap2\n      pop\n      pop\n      jump\t// out\n        /* \"contracts/Calculator.sol\":1088:1194  function power(uint256 num1_) public checkMaxPowerNumber(num1_){... */\n    tag_30:\n        /* \"contracts/Calculator.sol\":1145:1150  num1_ */\n      dup1\n        /* \"contracts/Calculator.sol\":196:198  10 */\n      0x0a\n        /* \"contracts/Calculator.sol\":188:193  num1_ */\n      dup2\n        /* \"contracts/Calculator.sol\":188:198  num1_ > 10 */\n      gt\n        /* \"contracts/Calculator.sol\":185:208  if(num1_ > 10) revert() */\n      iszero\n      tag_49\n      jumpi\n        /* \"contracts/Calculator.sol\":200:208  revert() */\n      0x00\n      dup1\n      revert\n        /* \"contracts/Calculator.sol\":185:208  if(num1_ > 10) revert() */\n    tag_49:\n        /* \"contracts/Calculator.sol\":1181:1186  num1_ */\n      dup2\n        /* \"contracts/Calculator.sol\":1171:1177  result */\n      sload(0x00)\n        /* \"contracts/Calculator.sol\":1171:1186  result ** num1_ */\n      tag_51\n      swap2\n      swap1\n      tag_52\n      jump\t// in\n    tag_51:\n        /* \"contracts/Calculator.sol\":1162:1168  result */\n      0x00\n        /* \"contracts/Calculator.sol\":1162:1186  result = result ** num1_ */\n      dup2\n      swap1\n      sstore\n      pop\n        /* \"contracts/Calculator.sol\":1088:1194  function power(uint256 num1_) public checkMaxPowerNumber(num1_){... */\n      pop\n      pop\n      jump\t// out\n        /* \"contracts/Calculator.sol\":835:977  function divide(int256 num1_, int256 num2_) public pure checkNotZero(num2_) returns (int256 result_){... */\n    tag_33:\n        /* \"contracts/Calculator.sol\":920:934  int256 result_ */\n      0x00\n        /* \"contracts/Calculator.sol\":904:909  num2_ */\n      dup2\n        /* \"contracts/Calculator.sol\":295:296  0 */\n      0x00\n        /* \"contracts/Calculator.sol\":286:291  num1_ */\n      dup2\n        /* \"contracts/Calculator.sol\":286:296  num1_ == 0 */\n      sub\n        /* \"contracts/Calculator.sol\":282:306  if (num1_ == 0) revert() */\n      tag_54\n      jumpi\n        /* \"contracts/Calculator.sol\":298:306  revert() */\n      0x00\n      dup1\n      revert\n        /* \"contracts/Calculator.sol\":282:306  if (num1_ == 0) revert() */\n    tag_54:\n        /* \"contracts/Calculator.sol\":964:969  num2_ */\n      dup3\n        /* \"contracts/Calculator.sol\":956:961  num1_ */\n      dup5\n        /* \"contracts/Calculator.sol\":956:969  num1_ / num2_ */\n      tag_56\n      swap2\n      swap1\n      tag_57\n      jump\t// in\n    tag_56:\n        /* \"contracts/Calculator.sol\":946:969  result_ = num1_ / num2_ */\n      swap2\n      pop\n        /* \"contracts/Calculator.sol\":835:977  function divide(int256 num1_, int256 num2_) public pure checkNotZero(num2_) returns (int256 result_){... */\n      pop\n      swap3\n      swap2\n      pop\n      pop\n      jump\t// out\n        /* \"contracts/Calculator.sol\":1206:1340  function substraction_logic(int256 num1_, int256 num2_) pure  internal returns (int256 result_){... */\n    tag_40:\n        /* \"contracts/Calculator.sol\":1286:1300  int256 result_ */\n      0x00\n        /* \"contracts/Calculator.sol\":1327:1332  num2_ */\n      dup2\n        /* \"contracts/Calculator.sol\":1319:1324  num1_ */\n      dup4\n        /* \"contracts/Calculator.sol\":1319:1332  num1_ - num2_ */\n      tag_59\n      swap2\n      swap1\n      tag_60\n      jump\t// in\n    tag_59:\n        /* \"contracts/Calculator.sol\":1312:1332  return num1_ - num2_ */\n      swap1\n      pop\n        /* \"contracts/Calculator.sol\":1206:1340  function substraction_logic(int256 num1_, int256 num2_) pure  internal returns (int256 result_){... */\n      swap3\n      swap2\n      pop\n      pop\n      jump\t// out\n        /* \"#utility.yul\":88:205   */\n    tag_62:\n        /* \"#utility.yul\":197:198   */\n      0x00\n        /* \"#utility.yul\":194:195   */\n      dup1\n        /* \"#utility.yul\":187:199   */\n      revert\n        /* \"#utility.yul\":334:411   */\n    tag_64:\n        /* \"#utility.yul\":371:378   */\n      0x00\n        /* \"#utility.yul\":400:405   */\n      dup2\n        /* \"#utility.yul\":389:405   */\n      swap1\n      pop\n        /* \"#utility.yul\":334:411   */\n      swap2\n      swap1\n      pop\n      jump\t// out\n        /* \"#utility.yul\":417:539   */\n    tag_65:\n        /* \"#utility.yul\":490:514   */\n      tag_83\n        /* \"#utility.yul\":508:513   */\n      dup2\n        /* \"#utility.yul\":490:514   */\n      tag_64\n      jump\t// in\n    tag_83:\n        /* \"#utility.yul\":483:488   */\n      dup2\n        /* \"#utility.yul\":480:515   */\n      eq\n        /* \"#utility.yul\":470:533   */\n      tag_84\n      jumpi\n        /* \"#utility.yul\":529:530   */\n      0x00\n        /* \"#utility.yul\":526:527   */\n      dup1\n        /* \"#utility.yul\":519:531   */\n      revert\n        /* \"#utility.yul\":470:533   */\n    tag_84:\n        /* \"#utility.yul\":417:539   */\n      pop\n      jump\t// out\n        /* \"#utility.yul\":545:684   */\n    tag_66:\n        /* \"#utility.yul\":591:596   */\n      0x00\n        /* \"#utility.yul\":629:635   */\n      dup2\n        /* \"#utility.yul\":616:636   */\n      calldataload\n        /* \"#utility.yul\":607:636   */\n      swap1\n      pop\n        /* \"#utility.yul\":645:678   */\n      tag_86\n        /* \"#utility.yul\":672:677   */\n      dup2\n        /* \"#utility.yul\":645:678   */\n      tag_65\n      jump\t// in\n    tag_86:\n        /* \"#utility.yul\":545:684   */\n      swap3\n      swap2\n      pop\n      pop\n      jump\t// out\n        /* \"#utility.yul\":690:1164   */\n    tag_11:\n        /* \"#utility.yul\":758:764   */\n      0x00\n        /* \"#utility.yul\":766:772   */\n      dup1\n        /* \"#utility.yul\":815:817   */\n      0x40\n        /* \"#utility.yul\":803:812   */\n      dup4\n        /* \"#utility.yul\":794:801   */\n      dup6\n        /* \"#utility.yul\":790:813   */\n      sub\n        /* \"#utility.yul\":786:818   */\n      slt\n        /* \"#utility.yul\":783:902   */\n      iszero\n      tag_88\n      jumpi\n        /* \"#utility.yul\":821:900   */\n      tag_89\n      tag_62\n      jump\t// in\n    tag_89:\n        /* \"#utility.yul\":783:902   */\n    tag_88:\n        /* \"#utility.yul\":941:942   */\n      0x00\n        /* \"#utility.yul\":966:1019   */\n      tag_90\n        /* \"#utility.yul\":1011:1018   */\n      dup6\n        /* \"#utility.yul\":1002:1008   */\n      dup3\n        /* \"#utility.yul\":991:1000   */\n      dup7\n        /* \"#utility.yul\":987:1009   */\n      add\n        /* \"#utility.yul\":966:1019   */\n      tag_66\n      jump\t// in\n    tag_90:\n        /* \"#utility.yul\":956:1019   */\n      swap3\n      pop\n        /* \"#utility.yul\":912:1029   */\n      pop\n        /* \"#utility.yul\":1068:1070   */\n      0x20\n        /* \"#utility.yul\":1094:1147   */\n      tag_91\n        /* \"#utility.yul\":1139:1146   */\n      dup6\n        /* \"#utility.yul\":1130:1136   */\n      dup3\n        /* \"#utility.yul\":1119:1128   */\n      dup7\n        /* \"#utility.yul\":1115:1137   */\n      add\n        /* \"#utility.yul\":1094:1147   */\n      tag_66\n      jump\t// in\n    tag_91:\n        /* \"#utility.yul\":1084:1147   */\n      swap2\n      pop\n        /* \"#utility.yul\":1039:1157   */\n      pop\n        /* \"#utility.yul\":690:1164   */\n      swap3\n      pop\n      swap3\n      swap1\n      pop\n      jump\t// out\n        /* \"#utility.yul\":1170:1288   */\n    tag_67:\n        /* \"#utility.yul\":1257:1281   */\n      tag_93\n        /* \"#utility.yul\":1275:1280   */\n      dup2\n        /* \"#utility.yul\":1257:1281   */\n      tag_64\n      jump\t// in\n    tag_93:\n        /* \"#utility.yul\":1252:1255   */\n      dup3\n        /* \"#utility.yul\":1245:1282   */\n      mstore\n        /* \"#utility.yul\":1170:1288   */\n      pop\n      pop\n      jump\t// out\n        /* \"#utility.yul\":1294:1516   */\n    tag_16:\n        /* \"#utility.yul\":1387:1391   */\n      0x00\n        /* \"#utility.yul\":1425:1427   */\n      0x20\n        /* \"#utility.yul\":1414:1423   */\n      dup3\n        /* \"#utility.yul\":1410:1428   */\n      add\n        /* \"#utility.yul\":1402:1428   */\n      swap1\n      pop\n        /* \"#utility.yul\":1438:1509   */\n      tag_95\n        /* \"#utility.yul\":1506:1507   */\n      0x00\n        /* \"#utility.yul\":1495:1504   */\n      dup4\n        /* \"#utility.yul\":1491:1508   */\n      add\n        /* \"#utility.yul\":1482:1488   */\n      dup5\n        /* \"#utility.yul\":1438:1509   */\n      tag_67\n      jump\t// in\n    tag_95:\n        /* \"#utility.yul\":1294:1516   */\n      swap3\n      swap2\n      pop\n      pop\n      jump\t// out\n        /* \"#utility.yul\":1522:1598   */\n    tag_68:\n        /* \"#utility.yul\":1558:1565   */\n      0x00\n        /* \"#utility.yul\":1587:1592   */\n      dup2\n        /* \"#utility.yul\":1576:1592   */\n      swap1\n      pop\n        /* \"#utility.yul\":1522:1598   */\n      swap2\n      swap1\n      pop\n      jump\t// out\n        /* \"#utility.yul\":1604:1724   */\n    tag_69:\n        /* \"#utility.yul\":1676:1699   */\n      tag_98\n        /* \"#utility.yul\":1693:1698   */\n      dup2\n        /* \"#utility.yul\":1676:1699   */\n      tag_68\n      jump\t// in\n    tag_98:\n        /* \"#utility.yul\":1669:1674   */\n      dup2\n        /* \"#utility.yul\":1666:1700   */\n      eq\n        /* \"#utility.yul\":1656:1718   */\n      tag_99\n      jumpi\n        /* \"#utility.yul\":1714:1715   */\n      0x00\n        /* \"#utility.yul\":1711:1712   */\n      dup1\n        /* \"#utility.yul\":1704:1716   */\n      revert\n        /* \"#utility.yul\":1656:1718   */\n    tag_99:\n        /* \"#utility.yul\":1604:1724   */\n      pop\n      jump\t// out\n        /* \"#utility.yul\":1730:1867   */\n    tag_70:\n        /* \"#utility.yul\":1775:1780   */\n      0x00\n        /* \"#utility.yul\":1813:1819   */\n      dup2\n        /* \"#utility.yul\":1800:1820   */\n      calldataload\n        /* \"#utility.yul\":1791:1820   */\n      swap1\n      pop\n        /* \"#utility.yul\":1829:1861   */\n      tag_101\n        /* \"#utility.yul\":1855:1860   */\n      dup2\n        /* \"#utility.yul\":1829:1861   */\n      tag_69\n      jump\t// in\n    tag_101:\n        /* \"#utility.yul\":1730:1867   */\n      swap3\n      swap2\n      pop\n      pop\n      jump\t// out\n        /* \"#utility.yul\":1873:2343   */\n    tag_19:\n        /* \"#utility.yul\":1939:1945   */\n      0x00\n        /* \"#utility.yul\":1947:1953   */\n      dup1\n        /* \"#utility.yul\":1996:1998   */\n      0x40\n        /* \"#utility.yul\":1984:1993   */\n      dup4\n        /* \"#utility.yul\":1975:1982   */\n      dup6\n        /* \"#utility.yul\":1971:1994   */\n      sub\n        /* \"#utility.yul\":1967:1999   */\n      slt\n        /* \"#utility.yul\":1964:2083   */\n      iszero\n      tag_103\n      jumpi\n        /* \"#utility.yul\":2002:2081   */\n      tag_104\n      tag_62\n      jump\t// in\n    tag_104:\n        /* \"#utility.yul\":1964:2083   */\n    tag_103:\n        /* \"#utility.yul\":2122:2123   */\n      0x00\n        /* \"#utility.yul\":2147:2199   */\n      tag_105\n        /* \"#utility.yul\":2191:2198   */\n      dup6\n        /* \"#utility.yul\":2182:2188   */\n      dup3\n        /* \"#utility.yul\":2171:2180   */\n      dup7\n        /* \"#utility.yul\":2167:2189   */\n      add\n        /* \"#utility.yul\":2147:2199   */\n      tag_70\n      jump\t// in\n    tag_105:\n        /* \"#utility.yul\":2137:2199   */\n      swap3\n      pop\n        /* \"#utility.yul\":2093:2209   */\n      pop\n        /* \"#utility.yul\":2248:2250   */\n      0x20\n        /* \"#utility.yul\":2274:2326   */\n      tag_106\n        /* \"#utility.yul\":2318:2325   */\n      dup6\n        /* \"#utility.yul\":2309:2315   */\n      dup3\n        /* \"#utility.yul\":2298:2307   */\n      dup7\n        /* \"#utility.yul\":2294:2316   */\n      add\n        /* \"#utility.yul\":2274:2326   */\n      tag_70\n      jump\t// in\n    tag_106:\n        /* \"#utility.yul\":2264:2326   */\n      swap2\n      pop\n        /* \"#utility.yul\":2219:2336   */\n      pop\n        /* \"#utility.yul\":1873:2343   */\n      swap3\n      pop\n      swap3\n      swap1\n      pop\n      jump\t// out\n        /* \"#utility.yul\":2349:2464   */\n    tag_71:\n        /* \"#utility.yul\":2434:2457   */\n      tag_108\n        /* \"#utility.yul\":2451:2456   */\n      dup2\n        /* \"#utility.yul\":2434:2457   */\n      tag_68\n      jump\t// in\n    tag_108:\n        /* \"#utility.yul\":2429:2432   */\n      dup3\n        /* \"#utility.yul\":2422:2458   */\n      mstore\n        /* \"#utility.yul\":2349:2464   */\n      pop\n      pop\n      jump\t// out\n        /* \"#utility.yul\":2470:2688   */\n    tag_22:\n        /* \"#utility.yul\":2561:2565   */\n      0x00\n        /* \"#utility.yul\":2599:2601   */\n      0x20\n        /* \"#utility.yul\":2588:2597   */\n      dup3\n        /* \"#utility.yul\":2584:2602   */\n      add\n        /* \"#utility.yul\":2576:2602   */\n      swap1\n      pop\n        /* \"#utility.yul\":2612:2681   */\n      tag_110\n        /* \"#utility.yul\":2678:2679   */\n      0x00\n        /* \"#utility.yul\":2667:2676   */\n      dup4\n        /* \"#utility.yul\":2663:2680   */\n      add\n        /* \"#utility.yul\":2654:2660   */\n      dup5\n        /* \"#utility.yul\":2612:2681   */\n      tag_71\n      jump\t// in\n    tag_110:\n        /* \"#utility.yul\":2470:2688   */\n      swap3\n      swap2\n      pop\n      pop\n      jump\t// out\n        /* \"#utility.yul\":2694:3023   */\n    tag_29:\n        /* \"#utility.yul\":2753:2759   */\n      0x00\n        /* \"#utility.yul\":2802:2804   */\n      0x20\n        /* \"#utility.yul\":2790:2799   */\n      dup3\n        /* \"#utility.yul\":2781:2788   */\n      dup5\n        /* \"#utility.yul\":2777:2800   */\n      sub\n        /* \"#utility.yul\":2773:2805   */\n      slt\n        /* \"#utility.yul\":2770:2889   */\n      iszero\n      tag_112\n      jumpi\n        /* \"#utility.yul\":2808:2887   */\n      tag_113\n      tag_62\n      jump\t// in\n    tag_113:\n        /* \"#utility.yul\":2770:2889   */\n    tag_112:\n        /* \"#utility.yul\":2928:2929   */\n      0x00\n        /* \"#utility.yul\":2953:3006   */\n      tag_114\n        /* \"#utility.yul\":2998:3005   */\n      dup5\n        /* \"#utility.yul\":2989:2995   */\n      dup3\n        /* \"#utility.yul\":2978:2987   */\n      dup6\n        /* \"#utility.yul\":2974:2996   */\n      add\n        /* \"#utility.yul\":2953:3006   */\n      tag_66\n      jump\t// in\n    tag_114:\n        /* \"#utility.yul\":2943:3006   */\n      swap2\n      pop\n        /* \"#utility.yul\":2899:3016   */\n      pop\n        /* \"#utility.yul\":2694:3023   */\n      swap3\n      swap2\n      pop\n      pop\n      jump\t// out\n        /* \"#utility.yul\":3029:3209   */\n    tag_72:\n        /* \"#utility.yul\":3077:3154   */\n      0x4e487b7100000000000000000000000000000000000000000000000000000000\n        /* \"#utility.yul\":3074:3075   */\n      0x00\n        /* \"#utility.yul\":3067:3155   */\n      mstore\n        /* \"#utility.yul\":3174:3178   */\n      0x11\n        /* \"#utility.yul\":3171:3172   */\n      0x04\n        /* \"#utility.yul\":3164:3179   */\n      mstore\n        /* \"#utility.yul\":3198:3202   */\n      0x24\n        /* \"#utility.yul\":3195:3196   */\n      0x00\n        /* \"#utility.yul\":3188:3203   */\n      revert\n        /* \"#utility.yul\":3215:3625   */\n    tag_37:\n        /* \"#utility.yul\":3255:3262   */\n      0x00\n        /* \"#utility.yul\":3278:3298   */\n      tag_117\n        /* \"#utility.yul\":3296:3297   */\n      dup3\n        /* \"#utility.yul\":3278:3298   */\n      tag_64\n      jump\t// in\n    tag_117:\n        /* \"#utility.yul\":3273:3298   */\n      swap2\n      pop\n        /* \"#utility.yul\":3312:3332   */\n      tag_118\n        /* \"#utility.yul\":3330:3331   */\n      dup4\n        /* \"#utility.yul\":3312:3332   */\n      tag_64\n      jump\t// in\n    tag_118:\n        /* \"#utility.yul\":3307:3332   */\n      swap3\n      pop\n        /* \"#utility.yul\":3367:3368   */\n      dup3\n        /* \"#utility.yul\":3364:3365   */\n      dup3\n        /* \"#utility.yul\":3360:3369   */\n      mul\n        /* \"#utility.yul\":3389:3419   */\n      tag_119\n        /* \"#utility.yul\":3407:3418   */\n      dup2\n        /* \"#utility.yul\":3389:3419   */\n      tag_64\n      jump\t// in\n    tag_119:\n        /* \"#utility.yul\":3378:3419   */\n      swap2\n      pop\n        /* \"#utility.yul\":3568:3569   */\n      dup3\n        /* \"#utility.yul\":3559:3566   */\n      dup3\n        /* \"#utility.yul\":3555:3570   */\n      div\n        /* \"#utility.yul\":3552:3553   */\n      dup5\n        /* \"#utility.yul\":3549:3571   */\n      eq\n        /* \"#utility.yul\":3529:3530   */\n      dup4\n        /* \"#utility.yul\":3522:3531   */\n      iszero\n        /* \"#utility.yul\":3502:3585   */\n      or\n        /* \"#utility.yul\":3479:3618   */\n      tag_120\n      jumpi\n        /* \"#utility.yul\":3598:3616   */\n      tag_121\n      tag_72\n      jump\t// in\n    tag_121:\n        /* \"#utility.yul\":3479:3618   */\n    tag_120:\n        /* \"#utility.yul\":3263:3625   */\n      pop\n        /* \"#utility.yul\":3215:3625   */\n      swap3\n      swap2\n      pop\n      pop\n      jump\t// out\n        /* \"#utility.yul\":3631:4061   */\n    tag_42:\n        /* \"#utility.yul\":3774:3778   */\n      0x00\n        /* \"#utility.yul\":3812:3814   */\n      0x60\n        /* \"#utility.yul\":3801:3810   */\n      dup3\n        /* \"#utility.yul\":3797:3815   */\n      add\n        /* \"#utility.yul\":3789:3815   */\n      swap1\n      pop\n        /* \"#utility.yul\":3825:3894   */\n      tag_123\n        /* \"#utility.yul\":3891:3892   */\n      0x00\n        /* \"#utility.yul\":3880:3889   */\n      dup4\n        /* \"#utility.yul\":3876:3893   */\n      add\n        /* \"#utility.yul\":3867:3873   */\n      dup7\n        /* \"#utility.yul\":3825:3894   */\n      tag_71\n      jump\t// in\n    tag_123:\n        /* \"#utility.yul\":3904:3974   */\n      tag_124\n        /* \"#utility.yul\":3970:3972   */\n      0x20\n        /* \"#utility.yul\":3959:3968   */\n      dup4\n        /* \"#utility.yul\":3955:3973   */\n      add\n        /* \"#utility.yul\":3946:3952   */\n      dup6\n        /* \"#utility.yul\":3904:3974   */\n      tag_71\n      jump\t// in\n    tag_124:\n        /* \"#utility.yul\":3984:4054   */\n      tag_125\n        /* \"#utility.yul\":4050:4052   */\n      0x40\n        /* \"#utility.yul\":4039:4048   */\n      dup4\n        /* \"#utility.yul\":4035:4053   */\n      add\n        /* \"#utility.yul\":4026:4032   */\n      dup5\n        /* \"#utility.yul\":3984:4054   */\n      tag_71\n      jump\t// in\n    tag_125:\n        /* \"#utility.yul\":3631:4061   */\n      swap5\n      swap4\n      pop\n      pop\n      pop\n      pop\n      jump\t// out\n        /* \"#utility.yul\":4067:4258   */\n    tag_45:\n        /* \"#utility.yul\":4107:4110   */\n      0x00\n        /* \"#utility.yul\":4126:4146   */\n      tag_127\n        /* \"#utility.yul\":4144:4145   */\n      dup3\n        /* \"#utility.yul\":4126:4146   */\n      tag_64\n      jump\t// in\n    tag_127:\n        /* \"#utility.yul\":4121:4146   */\n      swap2\n      pop\n        /* \"#utility.yul\":4160:4180   */\n      tag_128\n        /* \"#utility.yul\":4178:4179   */\n      dup4\n        /* \"#utility.yul\":4160:4180   */\n      tag_64\n      jump\t// in\n    tag_128:\n        /* \"#utility.yul\":4155:4180   */\n      swap3\n      pop\n        /* \"#utility.yul\":4203:4204   */\n      dup3\n        /* \"#utility.yul\":4200:4201   */\n      dup3\n        /* \"#utility.yul\":4196:4205   */\n      add\n        /* \"#utility.yul\":4189:4205   */\n      swap1\n      pop\n        /* \"#utility.yul\":4224:4227   */\n      dup1\n        /* \"#utility.yul\":4221:4222   */\n      dup3\n        /* \"#utility.yul\":4218:4228   */\n      gt\n        /* \"#utility.yul\":4215:4251   */\n      iszero\n      tag_129\n      jumpi\n        /* \"#utility.yul\":4231:4249   */\n      tag_130\n      tag_72\n      jump\t// in\n    tag_130:\n        /* \"#utility.yul\":4215:4251   */\n    tag_129:\n        /* \"#utility.yul\":4067:4258   */\n      swap3\n      swap2\n      pop\n      pop\n      jump\t// out\n        /* \"#utility.yul\":4264:4706   */\n    tag_47:\n        /* \"#utility.yul\":4413:4417   */\n      0x00\n        /* \"#utility.yul\":4451:4453   */\n      0x60\n        /* \"#utility.yul\":4440:4449   */\n      dup3\n        /* \"#utility.yul\":4436:4454   */\n      add\n        /* \"#utility.yul\":4428:4454   */\n      swap1\n      pop\n        /* \"#utility.yul\":4464:4535   */\n      tag_132\n        /* \"#utility.yul\":4532:4533   */\n      0x00\n        /* \"#utility.yul\":4521:4530   */\n      dup4\n        /* \"#utility.yul\":4517:4534   */\n      add\n        /* \"#utility.yul\":4508:4514   */\n      dup7\n        /* \"#utility.yul\":4464:4535   */\n      tag_67\n      jump\t// in\n    tag_132:\n        /* \"#utility.yul\":4545:4617   */\n      tag_133\n        /* \"#utility.yul\":4613:4615   */\n      0x20\n        /* \"#utility.yul\":4602:4611   */\n      dup4\n        /* \"#utility.yul\":4598:4616   */\n      add\n        /* \"#utility.yul\":4589:4595   */\n      dup6\n        /* \"#utility.yul\":4545:4617   */\n      tag_67\n      jump\t// in\n    tag_133:\n        /* \"#utility.yul\":4627:4699   */\n      tag_134\n        /* \"#utility.yul\":4695:4697   */\n      0x40\n        /* \"#utility.yul\":4684:4693   */\n      dup4\n        /* \"#utility.yul\":4680:4698   */\n      add\n        /* \"#utility.yul\":4671:4677   */\n      dup5\n        /* \"#utility.yul\":4627:4699   */\n      tag_67\n      jump\t// in\n    tag_134:\n        /* \"#utility.yul\":4264:4706   */\n      swap5\n      swap4\n      pop\n      pop\n      pop\n      pop\n      jump\t// out\n        /* \"#utility.yul\":4712:4814   */\n    tag_73:\n        /* \"#utility.yul\":4754:4762   */\n      0x00\n        /* \"#utility.yul\":4801:4806   */\n      dup2\n        /* \"#utility.yul\":4798:4799   */\n      0x01\n        /* \"#utility.yul\":4794:4807   */\n      shr\n        /* \"#utility.yul\":4773:4807   */\n      swap1\n      pop\n        /* \"#utility.yul\":4712:4814   */\n      swap2\n      swap1\n      pop\n      jump\t// out\n        /* \"#utility.yul\":4820:5668   */\n    tag_74:\n        /* \"#utility.yul\":4881:4886   */\n      0x00\n        /* \"#utility.yul\":4888:4892   */\n      dup1\n        /* \"#utility.yul\":4912:4918   */\n      dup3\n        /* \"#utility.yul\":4903:4918   */\n      swap2\n      pop\n        /* \"#utility.yul\":4936:4941   */\n      dup4\n        /* \"#utility.yul\":4927:4941   */\n      swap1\n      pop\n        /* \"#utility.yul\":4950:5662   */\n    tag_137:\n        /* \"#utility.yul\":4971:4972   */\n      0x01\n        /* \"#utility.yul\":4961:4969   */\n      dup6\n        /* \"#utility.yul\":4958:4973   */\n      gt\n        /* \"#utility.yul\":4950:5662   */\n      iszero\n      tag_139\n      jumpi\n        /* \"#utility.yul\":5066:5070   */\n      dup1\n        /* \"#utility.yul\":5061:5064   */\n      dup7\n        /* \"#utility.yul\":5057:5071   */\n      div\n        /* \"#utility.yul\":5051:5055   */\n      dup2\n        /* \"#utility.yul\":5048:5072   */\n      gt\n        /* \"#utility.yul\":5045:5095   */\n      iszero\n      tag_140\n      jumpi\n        /* \"#utility.yul\":5075:5093   */\n      tag_141\n      tag_72\n      jump\t// in\n    tag_141:\n        /* \"#utility.yul\":5045:5095   */\n    tag_140:\n        /* \"#utility.yul\":5125:5126   */\n      0x01\n        /* \"#utility.yul\":5115:5123   */\n      dup6\n        /* \"#utility.yul\":5111:5127   */\n      and\n        /* \"#utility.yul\":5108:5559   */\n      iszero\n      tag_142\n      jumpi\n        /* \"#utility.yul\":5540:5544   */\n      dup1\n        /* \"#utility.yul\":5533:5538   */\n      dup3\n        /* \"#utility.yul\":5529:5545   */\n      mul\n        /* \"#utility.yul\":5520:5545   */\n      swap2\n      pop\n        /* \"#utility.yul\":5108:5559   */\n    tag_142:\n        /* \"#utility.yul\":5590:5594   */\n      dup1\n        /* \"#utility.yul\":5584:5588   */\n      dup2\n        /* \"#utility.yul\":5580:5595   */\n      mul\n        /* \"#utility.yul\":5572:5595   */\n      swap1\n      pop\n        /* \"#utility.yul\":5620:5652   */\n      tag_143\n        /* \"#utility.yul\":5643:5651   */\n      dup6\n        /* \"#utility.yul\":5620:5652   */\n      tag_73\n      jump\t// in\n    tag_143:\n        /* \"#utility.yul\":5608:5652   */\n      swap5\n      pop\n        /* \"#utility.yul\":4950:5662   */\n      jump(tag_137)\n    tag_139:\n        /* \"#utility.yul\":4820:5668   */\n      swap5\n      pop\n      swap5\n      swap3\n      pop\n      pop\n      pop\n      jump\t// out\n        /* \"#utility.yul\":5674:6747   */\n    tag_75:\n        /* \"#utility.yul\":5728:5733   */\n      0x00\n        /* \"#utility.yul\":5919:5927   */\n      dup3\n        /* \"#utility.yul\":5909:5949   */\n      tag_145\n      jumpi\n        /* \"#utility.yul\":5940:5941   */\n      0x01\n        /* \"#utility.yul\":5931:5941   */\n      swap1\n      pop\n        /* \"#utility.yul\":5942:5947   */\n      jump(tag_144)\n        /* \"#utility.yul\":5909:5949   */\n    tag_145:\n        /* \"#utility.yul\":5968:5972   */\n      dup2\n        /* \"#utility.yul\":5958:5994   */\n      tag_146\n      jumpi\n        /* \"#utility.yul\":5985:5986   */\n      0x00\n        /* \"#utility.yul\":5976:5986   */\n      swap1\n      pop\n        /* \"#utility.yul\":5987:5992   */\n      jump(tag_144)\n        /* \"#utility.yul\":5958:5994   */\n    tag_146:\n        /* \"#utility.yul\":6054:6058   */\n      dup2\n        /* \"#utility.yul\":6102:6103   */\n      0x01\n        /* \"#utility.yul\":6097:6124   */\n      dup2\n      eq\n      tag_148\n      jumpi\n        /* \"#utility.yul\":6138:6139   */\n      0x02\n        /* \"#utility.yul\":6133:6324   */\n      dup2\n      eq\n      tag_149\n      jumpi\n        /* \"#utility.yul\":6047:6324   */\n      jump(tag_147)\n        /* \"#utility.yul\":6097:6124   */\n    tag_148:\n        /* \"#utility.yul\":6115:6116   */\n      0x01\n        /* \"#utility.yul\":6106:6116   */\n      swap2\n      pop\n        /* \"#utility.yul\":6117:6122   */\n      pop\n      jump(tag_144)\n        /* \"#utility.yul\":6133:6324   */\n    tag_149:\n        /* \"#utility.yul\":6178:6181   */\n      0xff\n        /* \"#utility.yul\":6168:6176   */\n      dup5\n        /* \"#utility.yul\":6165:6182   */\n      gt\n        /* \"#utility.yul\":6162:6205   */\n      iszero\n      tag_150\n      jumpi\n        /* \"#utility.yul\":6185:6203   */\n      tag_151\n      tag_72\n      jump\t// in\n    tag_151:\n        /* \"#utility.yul\":6162:6205   */\n    tag_150:\n        /* \"#utility.yul\":6234:6242   */\n      dup4\n        /* \"#utility.yul\":6231:6232   */\n      0x02\n        /* \"#utility.yul\":6227:6243   */\n      exp\n        /* \"#utility.yul\":6218:6243   */\n      swap2\n      pop\n        /* \"#utility.yul\":6269:6272   */\n      dup5\n        /* \"#utility.yul\":6262:6267   */\n      dup3\n        /* \"#utility.yul\":6259:6273   */\n      gt\n        /* \"#utility.yul\":6256:6296   */\n      iszero\n      tag_152\n      jumpi\n        /* \"#utility.yul\":6276:6294   */\n      tag_153\n      tag_72\n      jump\t// in\n    tag_153:\n        /* \"#utility.yul\":6256:6296   */\n    tag_152:\n        /* \"#utility.yul\":6309:6314   */\n      pop\n      jump(tag_144)\n        /* \"#utility.yul\":6047:6324   */\n    tag_147:\n      pop\n        /* \"#utility.yul\":6433:6435   */\n      0x20\n        /* \"#utility.yul\":6423:6431   */\n      dup4\n        /* \"#utility.yul\":6420:6436   */\n      lt\n        /* \"#utility.yul\":6414:6417   */\n      0x0133\n        /* \"#utility.yul\":6408:6412   */\n      dup4\n        /* \"#utility.yul\":6405:6418   */\n      lt\n        /* \"#utility.yul\":6401:6437   */\n      and\n        /* \"#utility.yul\":6383:6385   */\n      0x4e\n        /* \"#utility.yul\":6373:6381   */\n      dup5\n        /* \"#utility.yul\":6370:6386   */\n      lt\n        /* \"#utility.yul\":6365:6367   */\n      0x0b\n        /* \"#utility.yul\":6359:6363   */\n      dup5\n        /* \"#utility.yul\":6356:6368   */\n      lt\n        /* \"#utility.yul\":6352:6387   */\n      and\n        /* \"#utility.yul\":6336:6447   */\n      or\n        /* \"#utility.yul\":6333:6579   */\n      iszero\n      tag_154\n      jumpi\n        /* \"#utility.yul\":6489:6497   */\n      dup3\n        /* \"#utility.yul\":6483:6487   */\n      dup3\n        /* \"#utility.yul\":6479:6498   */\n      exp\n        /* \"#utility.yul\":6470:6498   */\n      swap1\n      pop\n        /* \"#utility.yul\":6524:6527   */\n      dup4\n        /* \"#utility.yul\":6517:6522   */\n      dup2\n        /* \"#utility.yul\":6514:6528   */\n      gt\n        /* \"#utility.yul\":6511:6551   */\n      iszero\n      tag_155\n      jumpi\n        /* \"#utility.yul\":6531:6549   */\n      tag_156\n      tag_72\n      jump\t// in\n    tag_156:\n        /* \"#utility.yul\":6511:6551   */\n    tag_155:\n        /* \"#utility.yul\":6564:6569   */\n      jump(tag_144)\n        /* \"#utility.yul\":6333:6579   */\n    tag_154:\n        /* \"#utility.yul\":6604:6646   */\n      tag_157\n        /* \"#utility.yul\":6642:6645   */\n      dup5\n        /* \"#utility.yul\":6632:6640   */\n      dup5\n        /* \"#utility.yul\":6626:6630   */\n      dup5\n        /* \"#utility.yul\":6623:6624   */\n      0x01\n        /* \"#utility.yul\":6604:6646   */\n      tag_74\n      jump\t// in\n    tag_157:\n        /* \"#utility.yul\":6589:6646   */\n      swap3\n      pop\n      swap1\n      pop\n        /* \"#utility.yul\":6678:6682   */\n      dup2\n        /* \"#utility.yul\":6673:6676   */\n      dup5\n        /* \"#utility.yul\":6669:6683   */\n      div\n        /* \"#utility.yul\":6662:6667   */\n      dup2\n        /* \"#utility.yul\":6659:6684   */\n      gt\n        /* \"#utility.yul\":6656:6707   */\n      iszero\n      tag_158\n      jumpi\n        /* \"#utility.yul\":6687:6705   */\n      tag_159\n      tag_72\n      jump\t// in\n    tag_159:\n        /* \"#utility.yul\":6656:6707   */\n    tag_158:\n        /* \"#utility.yul\":6736:6740   */\n      dup2\n        /* \"#utility.yul\":6729:6734   */\n      dup2\n        /* \"#utility.yul\":6725:6741   */\n      mul\n        /* \"#utility.yul\":6716:6741   */\n      swap1\n      pop\n        /* \"#utility.yul\":5674:6747   */\n    tag_144:\n      swap4\n      swap3\n      pop\n      pop\n      pop\n      jump\t// out\n        /* \"#utility.yul\":6753:7038   */\n    tag_52:\n        /* \"#utility.yul\":6813:6818   */\n      0x00\n        /* \"#utility.yul\":6837:6860   */\n      tag_161\n        /* \"#utility.yul\":6855:6859   */\n      dup3\n        /* \"#utility.yul\":6837:6860   */\n      tag_64\n      jump\t// in\n    tag_161:\n        /* \"#utility.yul\":6829:6860   */\n      swap2\n      pop\n        /* \"#utility.yul\":6881:6908   */\n      tag_162\n        /* \"#utility.yul\":6899:6907   */\n      dup4\n        /* \"#utility.yul\":6881:6908   */\n      tag_64\n      jump\t// in\n    tag_162:\n        /* \"#utility.yul\":6869:6908   */\n      swap3\n      pop\n        /* \"#utility.yul\":6927:7031   */\n      tag_163\n        /* \"#utility.yul\":6964:7030   */\n      0xffffffffffffffffffffffffffffffffffffffffffffffffffffffffffffffff\n        /* \"#utility.yul\":6954:6962   */\n      dup5\n        /* \"#utility.yul\":6948:6952   */\n      dup5\n        /* \"#utility.yul\":6927:7031   */\n      tag_75\n      jump\t// in\n    tag_163:\n        /* \"#utility.yul\":6918:7031   */\n      swap1\n      pop\n        /* \"#utility.yul\":6753:7038   */\n      swap3\n      swap2\n      pop\n      pop\n      jump\t// out\n        /* \"#utility.yul\":7044:7224   */\n    tag_76:\n        /* \"#utility.yul\":7092:7169   */\n      0x4e487b7100000000000000000000000000000000000000000000000000000000\n        /* \"#utility.yul\":7089:7090   */\n      0x00\n        /* \"#utility.yul\":7082:7170   */\n      mstore\n        /* \"#utility.yul\":7189:7193   */\n      0x12\n        /* \"#utility.yul\":7186:7187   */\n      0x04\n        /* \"#utility.yul\":7179:7194   */\n      mstore\n        /* \"#utility.yul\":7213:7217   */\n      0x24\n        /* \"#utility.yul\":7210:7211   */\n      0x00\n        /* \"#utility.yul\":7203:7218   */\n      revert\n        /* \"#utility.yul\":7230:7615   */\n    tag_57:\n        /* \"#utility.yul\":7269:7270   */\n      0x00\n        /* \"#utility.yul\":7286:7305   */\n      tag_166\n        /* \"#utility.yul\":7303:7304   */\n      dup3\n        /* \"#utility.yul\":7286:7305   */\n      tag_68\n      jump\t// in\n    tag_166:\n        /* \"#utility.yul\":7281:7305   */\n      swap2\n      pop\n        /* \"#utility.yul\":7319:7338   */\n      tag_167\n        /* \"#utility.yul\":7336:7337   */\n      dup4\n        /* \"#utility.yul\":7319:7338   */\n      tag_68\n      jump\t// in\n    tag_167:\n        /* \"#utility.yul\":7314:7338   */\n      swap3\n      pop\n        /* \"#utility.yul\":7357:7358   */\n      dup3\n        /* \"#utility.yul\":7347:7382   */\n      tag_168\n      jumpi\n        /* \"#utility.yul\":7362:7380   */\n      tag_169\n      tag_76\n      jump\t// in\n    tag_169:\n        /* \"#utility.yul\":7347:7382   */\n    tag_168:\n        /* \"#utility.yul\":7548:7549   */\n      0x01\n        /* \"#utility.yul\":7545:7546   */\n      0x00\n        /* \"#utility.yul\":7541:7550   */\n      sub\n        /* \"#utility.yul\":7538:7539   */\n      dup4\n        /* \"#utility.yul\":7535:7551   */\n      eq\n        /* \"#utility.yul\":7454:7520   */\n      0x8000000000000000000000000000000000000000000000000000000000000000\n        /* \"#utility.yul\":7451:7452   */\n      dup4\n        /* \"#utility.yul\":7448:7521   */\n      eq\n        /* \"#utility.yul\":7431:7561   */\n      and\n        /* \"#utility.yul\":7428:7584   */\n      iszero\n      tag_170\n      jumpi\n        /* \"#utility.yul\":7564:7582   */\n      tag_171\n      tag_72\n      jump\t// in\n    tag_171:\n        /* \"#utility.yul\":7428:7584   */\n    tag_170:\n        /* \"#utility.yul\":7607:7608   */\n      dup3\n        /* \"#utility.yul\":7604:7605   */\n      dup3\n        /* \"#utility.yul\":7599:7609   */\n      sdiv\n        /* \"#utility.yul\":7594:7609   */\n      swap1\n      pop\n        /* \"#utility.yul\":7230:7615   */\n      swap3\n      swap2\n      pop\n      pop\n      jump\t// out\n        /* \"#utility.yul\":7621:7993   */\n    tag_60:\n        /* \"#utility.yul\":7660:7664   */\n      0x00\n        /* \"#utility.yul\":7680:7699   */\n      tag_173\n        /* \"#utility.yul\":7697:7698   */\n      dup3\n        /* \"#utility.yul\":7680:7699   */\n      tag_68\n      jump\t// in\n    tag_173:\n        /* \"#utility.yul\":7675:7699   */\n      swap2\n      pop\n        /* \"#utility.yul\":7713:7732   */\n      tag_174\n        /* \"#utility.yul\":7730:7731   */\n      dup4\n        /* \"#utility.yul\":7713:7732   */\n      tag_68\n      jump\t// in\n    tag_174:\n        /* \"#utility.yul\":7708:7732   */\n      swap3\n      pop\n        /* \"#utility.yul\":7756:7757   */\n      dup3\n        /* \"#utility.yul\":7753:7754   */\n      dup3\n        /* \"#utility.yul\":7749:7758   */\n      sub\n        /* \"#utility.yul\":7741:7758   */\n      swap1\n      pop\n        /* \"#utility.yul\":7950:7951   */\n      dup2\n        /* \"#utility.yul\":7944:7948   */\n      dup2\n        /* \"#utility.yul\":7940:7952   */\n      slt\n        /* \"#utility.yul\":7936:7937   */\n      0x00\n        /* \"#utility.yul\":7933:7934   */\n      dup5\n        /* \"#utility.yul\":7929:7938   */\n      slt\n        /* \"#utility.yul\":7925:7953   */\n      and\n        /* \"#utility.yul\":7908:7909   */\n      dup3\n        /* \"#utility.yul\":7902:7906   */\n      dup3\n        /* \"#utility.yul\":7898:7910   */\n      sgt\n        /* \"#utility.yul\":7893:7894   */\n      0x00\n        /* \"#utility.yul\":7890:7891   */\n      dup6\n        /* \"#utility.yul\":7886:7895   */\n      slt\n        /* \"#utility.yul\":7879:7896   */\n      iszero\n        /* \"#utility.yul\":7875:7911   */\n      and\n        /* \"#utility.yul\":7859:7963   */\n      or\n        /* \"#utility.yul\":7856:7986   */\n      iszero\n      tag_175\n      jumpi\n        /* \"#utility.yul\":7966:7984   */\n      tag_176\n      tag_72\n      jump\t// in\n    tag_176:\n        /* \"#utility.yul\":7856:7986   */\n    tag_175:\n        /* \"#utility.yul\":7621:7993   */\n      swap3\n      swap2\n      pop\n      pop\n      jump\t// out\n\n    auxdata: 0xa2646970667358221220bf3ae20e9a36700952adc3fda68444cefcccaeb1bb60e10251654981acf2ea0464736f6c63430008180033\n}\n",
				"bytecode": {
					"linkReferences": {},
					"object": "608060405260015f55348015610013575f80fd5b5061074d806100215f395ff3fe608060405234801561000f575f80fd5b5060043610610060575f3560e01c8063165c4a16146100645780636537214714610080578063700270051461009e578063771602f7146100ce578063cc193fb0146100fe578063f59842361461011a575b5f80fd5b61007e60048036038101906100799190610294565b61014a565b005b61008861015f565b60405161009591906102e1565b60405180910390f35b6100b860048036038101906100b3919061032d565b610164565b6040516100c5919061037a565b60405180910390f35b6100e860048036038101906100e39190610294565b6101b2565b6040516100f591906102e1565b60405180910390f35b61011860048036038101906101139190610393565b610202565b005b610134600480360381019061012f919061032d565b610226565b604051610141919061037a565b60405180910390f35b808261015691906103eb565b5f819055505050565b5f5481565b5f61016f8383610248565b90507f29555e1db92f5ed941601f535b20f25e2f27f2c9bd5bfecab343060ca0275b0c8383836040516101a49392919061042c565b60405180910390a192915050565b5f81836101bf9190610461565b90507f099a8fd2a0841afbe8000d711d763bf2c54b2c63bed7b7f92a244ef4f51545368383836040516101f493929190610494565b60405180910390a192915050565b80600a811115610210575f80fd5b815f5461021d91906105f8565b5f819055505050565b5f815f8103610233575f80fd5b828461023f919061066f565b91505092915050565b5f818361025591906106d7565b905092915050565b5f80fd5b5f819050919050565b61027381610261565b811461027d575f80fd5b50565b5f8135905061028e8161026a565b92915050565b5f80604083850312156102aa576102a961025d565b5b5f6102b785828601610280565b92505060206102c885828601610280565b9150509250929050565b6102db81610261565b82525050565b5f6020820190506102f45f8301846102d2565b92915050565b5f819050919050565b61030c816102fa565b8114610316575f80fd5b50565b5f8135905061032781610303565b92915050565b5f80604083850312156103435761034261025d565b5b5f61035085828601610319565b925050602061036185828601610319565b9150509250929050565b610374816102fa565b82525050565b5f60208201905061038d5f83018461036b565b92915050565b5f602082840312156103a8576103a761025d565b5b5f6103b584828501610280565b91505092915050565b7f4e487b71000000000000000000000000000000000000000000000000000000005f52601160045260245ffd5b5f6103f582610261565b915061040083610261565b925082820261040e81610261565b91508282048414831517610425576104246103be565b5b5092915050565b5f60608201905061043f5f83018661036b565b61044c602083018561036b565b610459604083018461036b565b949350505050565b5f61046b82610261565b915061047683610261565b925082820190508082111561048e5761048d6103be565b5b92915050565b5f6060820190506104a75f8301866102d2565b6104b460208301856102d2565b6104c160408301846102d2565b949350505050565b5f8160011c9050919050565b5f808291508390505b600185111561051e578086048111156104fa576104f96103be565b5b60018516156105095780820291505b8081029050610517856104c9565b94506104de565b94509492505050565b5f8261053657600190506105f1565b81610543575f90506105f1565b8160018114610559576002811461056357610592565b60019150506105f1565b60ff841115610575576105746103be565b5b8360020a91508482111561058c5761058b6103be565b5b506105f1565b5060208310610133831016604e8410600b84101617156105c75782820a9050838111156105c2576105c16103be565b5b6105f1565b6105d484848460016104d5565b925090508184048111156105eb576105ea6103be565b5b81810290505b9392505050565b5f61060282610261565b915061060d83610261565b925061063a7fffffffffffffffffffffffffffffffffffffffffffffffffffffffffffffffff8484610527565b905092915050565b7f4e487b71000000000000000000000000000000000000000000000000000000005f52601260045260245ffd5b5f610679826102fa565b9150610684836102fa565b92508261069457610693610642565b5b60015f0383147f8000000000000000000000000000000000000000000000000000000000000000831416156106cc576106cb6103be565b5b828205905092915050565b5f6106e1826102fa565b91506106ec836102fa565b925082820390508181125f8412168282135f851215161715610711576107106103be565b5b9291505056fea2646970667358221220bf3ae20e9a36700952adc3fda68444cefcccaeb1bb60e10251654981acf2ea0464736f6c63430008180033",
					"opcodes": "PUSH1 0x80 PUSH1 0x40 MSTORE PUSH1 0x1 PUSH0 SSTORE CALLVALUE DUP1 ISZERO PUSH2 0x13 JUMPI PUSH0 DUP1 REVERT JUMPDEST POP PUSH2 0x74D DUP1 PUSH2 0x21 PUSH0 CODECOPY PUSH0 RETURN INVALID PUSH1 0x80 PUSH1 0x40 MSTORE CALLVALUE DUP1 ISZERO PUSH2 0xF JUMPI PUSH0 DUP1 REVERT JUMPDEST POP PUSH1 0x4 CALLDATASIZE LT PUSH2 0x60 JUMPI PUSH0 CALLDATALOAD PUSH1 0xE0 SHR DUP1 PUSH4 0x165C4A16 EQ PUSH2 0x64 JUMPI DUP1 PUSH4 0x65372147 EQ PUSH2 0x80 JUMPI DUP1 PUSH4 0x70027005 EQ PUSH2 0x9E JUMPI DUP1 PUSH4 0x771602F7 EQ PUSH2 0xCE JUMPI DUP1 PUSH4 0xCC193FB0 EQ PUSH2 0xFE JUMPI DUP1 PUSH4 0xF5984236 EQ PUSH2 0x11A JUMPI JUMPDEST PUSH0 DUP1 REVERT JUMPDEST PUSH2 0x7E PUSH1 0x4 DUP1 CALLDATASIZE SUB DUP2 ADD SWAP1 PUSH2 0x79 SWAP2 SWAP1 PUSH2 0x294 JUMP JUMPDEST PUSH2 0x14A JUMP JUMPDEST STOP JUMPDEST PUSH2 0x88 PUSH2 0x15F JUMP JUMPDEST PUSH1 0x40 MLOAD PUSH2 0x95 SWAP2 SWAP1 PUSH2 0x2E1 JUMP JUMPDEST PUSH1 0x40 MLOAD DUP1 SWAP2 SUB SWAP1 RETURN JUMPDEST PUSH2 0xB8 PUSH1 0x4 DUP1 CALLDATASIZE SUB DUP2 ADD SWAP1 PUSH2 0xB3 SWAP2 SWAP1 PUSH2 0x32D JUMP JUMPDEST PUSH2 0x164 JUMP JUMPDEST PUSH1 0x40 MLOAD PUSH2 0xC5 SWAP2 SWAP1 PUSH2 0x37A JUMP JUMPDEST PUSH1 0x40 MLOAD DUP1 SWAP2 SUB SWAP1 RETURN JUMPDEST PUSH2 0xE8 PUSH1 0x4 DUP1 CALLDATASIZE SUB DUP2 ADD SWAP1 PUSH2 0xE3 SWAP2 SWAP1 PUSH2 0x294 JUMP JUMPDEST PUSH2 0x1B2 JUMP JUMPDEST PUSH1 0x40 MLOAD PUSH2 0xF5 SWAP2 SWAP1 PUSH2 0x2E1 JUMP JUMPDEST PUSH1 0x40 MLOAD DUP1 SWAP2 SUB SWAP1 RETURN JUMPDEST PUSH2 0x118 PUSH1 0x4 DUP1 CALLDATASIZE SUB DUP2 ADD SWAP1 PUSH2 0x113 SWAP2 SWAP1 PUSH2 0x393 JUMP JUMPDEST PUSH2 0x202 JUMP JUMPDEST STOP JUMPDEST PUSH2 0x134 PUSH1 0x4 DUP1 CALLDATASIZE SUB DUP2 ADD SWAP1 PUSH2 0x12F SWAP2 SWAP1 PUSH2 0x32D JUMP JUMPDEST PUSH2 0x226 JUMP JUMPDEST PUSH1 0x40 MLOAD PUSH2 0x141 SWAP2 SWAP1 PUSH2 0x37A JUMP JUMPDEST PUSH1 0x40 MLOAD DUP1 SWAP2 SUB SWAP1 RETURN JUMPDEST DUP1 DUP3 PUSH2 0x156 SWAP2 SWAP1 PUSH2 0x3EB JUMP JUMPDEST PUSH0 DUP2 SWAP1 SSTORE POP POP POP JUMP JUMPDEST PUSH0 SLOAD DUP2 JUMP JUMPDEST PUSH0 PUSH2 0x16F DUP4 DUP4 PUSH2 0x248 JUMP JUMPDEST SWAP1 POP PUSH32 0x29555E1DB92F5ED941601F535B20F25E2F27F2C9BD5BFECAB343060CA0275B0C DUP4 DUP4 DUP4 PUSH1 0x40 MLOAD PUSH2 0x1A4 SWAP4 SWAP3 SWAP2 SWAP1 PUSH2 0x42C JUMP JUMPDEST PUSH1 0x40 MLOAD DUP1 SWAP2 SUB SWAP1 LOG1 SWAP3 SWAP2 POP POP JUMP JUMPDEST PUSH0 DUP2 DUP4 PUSH2 0x1BF SWAP2 SWAP1 PUSH2 0x461 JUMP JUMPDEST SWAP1 POP PUSH32 0x99A8FD2A0841AFBE8000D711D763BF2C54B2C63BED7B7F92A244EF4F5154536 DUP4 DUP4 DUP4 PUSH1 0x40 MLOAD PUSH2 0x1F4 SWAP4 SWAP3 SWAP2 SWAP1 PUSH2 0x494 JUMP JUMPDEST PUSH1 0x40 MLOAD DUP1 SWAP2 SUB SWAP1 LOG1 SWAP3 SWAP2 POP POP JUMP JUMPDEST DUP1 PUSH1 0xA DUP2 GT ISZERO PUSH2 0x210 JUMPI PUSH0 DUP1 REVERT JUMPDEST DUP2 PUSH0 SLOAD PUSH2 0x21D SWAP2 SWAP1 PUSH2 0x5F8 JUMP JUMPDEST PUSH0 DUP2 SWAP1 SSTORE POP POP POP JUMP JUMPDEST PUSH0 DUP2 PUSH0 DUP2 SUB PUSH2 0x233 JUMPI PUSH0 DUP1 REVERT JUMPDEST DUP3 DUP5 PUSH2 0x23F SWAP2 SWAP1 PUSH2 0x66F JUMP JUMPDEST SWAP2 POP POP SWAP3 SWAP2 POP POP JUMP JUMPDEST PUSH0 DUP2 DUP4 PUSH2 0x255 SWAP2 SWAP1 PUSH2 0x6D7 JUMP JUMPDEST SWAP1 POP SWAP3 SWAP2 POP POP JUMP JUMPDEST PUSH0 DUP1 REVERT JUMPDEST PUSH0 DUP2 SWAP1 POP SWAP2 SWAP1 POP JUMP JUMPDEST PUSH2 0x273 DUP2 PUSH2 0x261 JUMP JUMPDEST DUP2 EQ PUSH2 0x27D JUMPI PUSH0 DUP1 REVERT JUMPDEST POP JUMP JUMPDEST PUSH0 DUP2 CALLDATALOAD SWAP1 POP PUSH2 0x28E DUP2 PUSH2 0x26A JUMP JUMPDEST SWAP3 SWAP2 POP POP JUMP JUMPDEST PUSH0 DUP1 PUSH1 0x40 DUP4 DUP6 SUB SLT ISZERO PUSH2 0x2AA JUMPI PUSH2 0x2A9 PUSH2 0x25D JUMP JUMPDEST JUMPDEST PUSH0 PUSH2 0x2B7 DUP6 DUP3 DUP7 ADD PUSH2 0x280 JUMP JUMPDEST SWAP3 POP POP PUSH1 0x20 PUSH2 0x2C8 DUP6 DUP3 DUP7 ADD PUSH2 0x280 JUMP JUMPDEST SWAP2 POP POP SWAP3 POP SWAP3 SWAP1 POP JUMP JUMPDEST PUSH2 0x2DB DUP2 PUSH2 0x261 JUMP JUMPDEST DUP3 MSTORE POP POP JUMP JUMPDEST PUSH0 PUSH1 0x20 DUP3 ADD SWAP1 POP PUSH2 0x2F4 PUSH0 DUP4 ADD DUP5 PUSH2 0x2D2 JUMP JUMPDEST SWAP3 SWAP2 POP POP JUMP JUMPDEST PUSH0 DUP2 SWAP1 POP SWAP2 SWAP1 POP JUMP JUMPDEST PUSH2 0x30C DUP2 PUSH2 0x2FA JUMP JUMPDEST DUP2 EQ PUSH2 0x316 JUMPI PUSH0 DUP1 REVERT JUMPDEST POP JUMP JUMPDEST PUSH0 DUP2 CALLDATALOAD SWAP1 POP PUSH2 0x327 DUP2 PUSH2 0x303 JUMP JUMPDEST SWAP3 SWAP2 POP POP JUMP JUMPDEST PUSH0 DUP1 PUSH1 0x40 DUP4 DUP6 SUB SLT ISZERO PUSH2 0x343 JUMPI PUSH2 0x342 PUSH2 0x25D JUMP JUMPDEST JUMPDEST PUSH0 PUSH2 0x350 DUP6 DUP3 DUP7 ADD PUSH2 0x319 JUMP JUMPDEST SWAP3 POP POP PUSH1 0x20 PUSH2 0x361 DUP6 DUP3 DUP7 ADD PUSH2 0x319 JUMP JUMPDEST SWAP2 POP POP SWAP3 POP SWAP3 SWAP1 POP JUMP JUMPDEST PUSH2 0x374 DUP2 PUSH2 0x2FA JUMP JUMPDEST DUP3 MSTORE POP POP JUMP JUMPDEST PUSH0 PUSH1 0x20 DUP3 ADD SWAP1 POP PUSH2 0x38D PUSH0 DUP4 ADD DUP5 PUSH2 0x36B JUMP JUMPDEST SWAP3 SWAP2 POP POP JUMP JUMPDEST PUSH0 PUSH1 0x20 DUP3 DUP5 SUB SLT ISZERO PUSH2 0x3A8 JUMPI PUSH2 0x3A7 PUSH2 0x25D JUMP JUMPDEST JUMPDEST PUSH0 PUSH2 0x3B5 DUP5 DUP3 DUP6 ADD PUSH2 0x280 JUMP JUMPDEST SWAP2 POP POP SWAP3 SWAP2 POP POP JUMP JUMPDEST PUSH32 0x4E487B7100000000000000000000000000000000000000000000000000000000 PUSH0 MSTORE PUSH1 0x11 PUSH1 0x4 MSTORE PUSH1 0x24 PUSH0 REVERT JUMPDEST PUSH0 PUSH2 0x3F5 DUP3 PUSH2 0x261 JUMP JUMPDEST SWAP2 POP PUSH2 0x400 DUP4 PUSH2 0x261 JUMP JUMPDEST SWAP3 POP DUP3 DUP3 MUL PUSH2 0x40E DUP2 PUSH2 0x261 JUMP JUMPDEST SWAP2 POP DUP3 DUP3 DIV DUP5 EQ DUP4 ISZERO OR PUSH2 0x425 JUMPI PUSH2 0x424 PUSH2 0x3BE JUMP JUMPDEST JUMPDEST POP SWAP3 SWAP2 POP POP JUMP JUMPDEST PUSH0 PUSH1 0x60 DUP3 ADD SWAP1 POP PUSH2 0x43F PUSH0 DUP4 ADD DUP7 PUSH2 0x36B JUMP JUMPDEST PUSH2 0x44C PUSH1 0x20 DUP4 ADD DUP6 PUSH2 0x36B JUMP JUMPDEST PUSH2 0x459 PUSH1 0x40 DUP4 ADD DUP5 PUSH2 0x36B JUMP JUMPDEST SWAP5 SWAP4 POP POP POP POP JUMP JUMPDEST PUSH0 PUSH2 0x46B DUP3 PUSH2 0x261 JUMP JUMPDEST SWAP2 POP PUSH2 0x476 DUP4 PUSH2 0x261 JUMP JUMPDEST SWAP3 POP DUP3 DUP3 ADD SWAP1 POP DUP1 DUP3 GT ISZERO PUSH2 0x48E JUMPI PUSH2 0x48D PUSH2 0x3BE JUMP JUMPDEST JUMPDEST SWAP3 SWAP2 POP POP JUMP JUMPDEST PUSH0 PUSH1 0x60 DUP3 ADD SWAP1 POP PUSH2 0x4A7 PUSH0 DUP4 ADD DUP7 PUSH2 0x2D2 JUMP JUMPDEST PUSH2 0x4B4 PUSH1 0x20 DUP4 ADD DUP6 PUSH2 0x2D2 JUMP JUMPDEST PUSH2 0x4C1 PUSH1 0x40 DUP4 ADD DUP5 PUSH2 0x2D2 JUMP JUMPDEST SWAP5 SWAP4 POP POP POP POP JUMP JUMPDEST PUSH0 DUP2 PUSH1 0x1 SHR SWAP1 POP SWAP2 SWAP1 POP JUMP JUMPDEST PUSH0 DUP1 DUP3 SWAP2 POP DUP4 SWAP1 POP JUMPDEST PUSH1 0x1 DUP6 GT ISZERO PUSH2 0x51E JUMPI DUP1 DUP7 DIV DUP2 GT ISZERO PUSH2 0x4FA JUMPI PUSH2 0x4F9 PUSH2 0x3BE JUMP JUMPDEST JUMPDEST PUSH1 0x1 DUP6 AND ISZERO PUSH2 0x509 JUMPI DUP1 DUP3 MUL SWAP2 POP JUMPDEST DUP1 DUP2 MUL SWAP1 POP PUSH2 0x517 DUP6 PUSH2 0x4C9 JUMP JUMPDEST SWAP5 POP PUSH2 0x4DE JUMP JUMPDEST SWAP5 POP SWAP5 SWAP3 POP POP POP JUMP JUMPDEST PUSH0 DUP3 PUSH2 0x536 JUMPI PUSH1 0x1 SWAP1 POP PUSH2 0x5F1 JUMP JUMPDEST DUP2 PUSH2 0x543 JUMPI PUSH0 SWAP1 POP PUSH2 0x5F1 JUMP JUMPDEST DUP2 PUSH1 0x1 DUP2 EQ PUSH2 0x559 JUMPI PUSH1 0x2 DUP2 EQ PUSH2 0x563 JUMPI PUSH2 0x592 JUMP JUMPDEST PUSH1 0x1 SWAP2 POP POP PUSH2 0x5F1 JUMP JUMPDEST PUSH1 0xFF DUP5 GT ISZERO PUSH2 0x575 JUMPI PUSH2 0x574 PUSH2 0x3BE JUMP JUMPDEST JUMPDEST DUP4 PUSH1 0x2 EXP SWAP2 POP DUP5 DUP3 GT ISZERO PUSH2 0x58C JUMPI PUSH2 0x58B PUSH2 0x3BE JUMP JUMPDEST JUMPDEST POP PUSH2 0x5F1 JUMP JUMPDEST POP PUSH1 0x20 DUP4 LT PUSH2 0x133 DUP4 LT AND PUSH1 0x4E DUP5 LT PUSH1 0xB DUP5 LT AND OR ISZERO PUSH2 0x5C7 JUMPI DUP3 DUP3 EXP SWAP1 POP DUP4 DUP2 GT ISZERO PUSH2 0x5C2 JUMPI PUSH2 0x5C1 PUSH2 0x3BE JUMP JUMPDEST JUMPDEST PUSH2 0x5F1 JUMP JUMPDEST PUSH2 0x5D4 DUP5 DUP5 DUP5 PUSH1 0x1 PUSH2 0x4D5 JUMP JUMPDEST SWAP3 POP SWAP1 POP DUP2 DUP5 DIV DUP2 GT ISZERO PUSH2 0x5EB JUMPI PUSH2 0x5EA PUSH2 0x3BE JUMP JUMPDEST JUMPDEST DUP2 DUP2 MUL SWAP1 POP JUMPDEST SWAP4 SWAP3 POP POP POP JUMP JUMPDEST PUSH0 PUSH2 0x602 DUP3 PUSH2 0x261 JUMP JUMPDEST SWAP2 POP PUSH2 0x60D DUP4 PUSH2 0x261 JUMP JUMPDEST SWAP3 POP PUSH2 0x63A PUSH32 0xFFFFFFFFFFFFFFFFFFFFFFFFFFFFFFFFFFFFFFFFFFFFFFFFFFFFFFFFFFFFFFFF DUP5 DUP5 PUSH2 0x527 JUMP JUMPDEST SWAP1 POP SWAP3 SWAP2 POP POP JUMP JUMPDEST PUSH32 0x4E487B7100000000000000000000000000000000000000000000000000000000 PUSH0 MSTORE PUSH1 0x12 PUSH1 0x4 MSTORE PUSH1 0x24 PUSH0 REVERT JUMPDEST PUSH0 PUSH2 0x679 DUP3 PUSH2 0x2FA JUMP JUMPDEST SWAP2 POP PUSH2 0x684 DUP4 PUSH2 0x2FA JUMP JUMPDEST SWAP3 POP DUP3 PUSH2 0x694 JUMPI PUSH2 0x693 PUSH2 0x642 JUMP JUMPDEST JUMPDEST PUSH1 0x1 PUSH0 SUB DUP4 EQ PUSH32 0x8000000000000000000000000000000000000000000000000000000000000000 DUP4 EQ AND ISZERO PUSH2 0x6CC JUMPI PUSH2 0x6CB PUSH2 0x3BE JUMP JUMPDEST JUMPDEST DUP3 DUP3 SDIV SWAP1 POP SWAP3 SWAP2 POP POP JUMP JUMPDEST PUSH0 PUSH2 0x6E1 DUP3 PUSH2 0x2FA JUMP JUMPDEST SWAP2 POP PUSH2 0x6EC DUP4 PUSH2 0x2FA JUMP JUMPDEST SWAP3 POP DUP3 DUP3 SUB SWAP1 POP DUP2 DUP2 SLT PUSH0 DUP5 SLT AND DUP3 DUP3 SGT PUSH0 DUP6 SLT ISZERO AND OR ISZERO PUSH2 0x711 JUMPI PUSH2 0x710 PUSH2 0x3BE JUMP JUMPDEST JUMPDEST SWAP3 SWAP2 POP POP JUMP INVALID LOG2 PUSH5 0x6970667358 0x22 SLT KECCAK256 0xBF GASPRICE 0xE2 0xE SWAP11 CALLDATASIZE PUSH17 0x952ADC3FDA68444CEFCCCAEB1BB60E102 MLOAD PUSH6 0x4981ACF2EA04 PUSH5 0x736F6C6343 STOP ADDMOD XOR STOP CALLER "
				},
				"gasEstimates": {
					"creation": {
						"codeDepositCost": "373800",
						"executionCost": "22514",
						"totalCost": "396314"
					},
					"external": {
						"add(uint256,uint256)": "infinite",
						"divide(int256,int256)": "infinite",
						"multiply(uint256,uint256)": "infinite",
						"power(uint256)": "infinite",
						"result()": "2424",
						"substract(int256,int256)": "infinite"
					},
					"internal": {
						"substraction_logic(int256,int256)": "infinite"
					}
				},
				"methodIdentifiers": {
					"add(uint256,uint256)": "771602f7",
					"divide(int256,int256)": "f5984236",
					"multiply(uint256,uint256)": "165c4a16",
					"power(uint256)": "cc193fb0",
					"result()": "65372147",
					"substract(int256,int256)": "70027005"
				}
			},
			"storageLayout": {
				"storage": [
					{
						"astId": 4,
						"contract": "contracts/Calculator.sol:Calculator",
						"label": "result",
						"offset": 0,
						"slot": "0",
						"type": "t_uint256"
					}
				],
				"types": {
					"t_uint256": {
						"encoding": "inplace",
						"label": "uint256",
						"numberOfBytes": "32"
					}
				}
			},
			"userdoc": {
				"kind": "user",
				"methods": {},
				"version": 1
			}
		}
	}
}